{
  "_format": "hh-sol-artifact-1",
  "contractName": "MultisigWallet",
  "sourceName": "contracts/multisig.sol",
  "abi": [
    {
      "inputs": [
        {
          "internalType": "address[]",
          "name": "_owners",
          "type": "address[]"
        },
        {
          "internalType": "uint256",
          "name": "_required",
          "type": "uint256"
        }
      ],
      "stateMutability": "nonpayable",
      "type": "constructor"
    },
    {
      "anonymous": false,
      "inputs": [
        {
          "indexed": true,
          "internalType": "address",
          "name": "owner",
          "type": "address"
        },
        {
          "indexed": true,
          "internalType": "uint256",
          "name": "txId",
          "type": "uint256"
        }
      ],
      "name": "Approve",
      "type": "event"
    },
    {
      "anonymous": false,
      "inputs": [
        {
          "indexed": true,
          "internalType": "address",
          "name": "sender",
          "type": "address"
        },
        {
          "indexed": false,
          "internalType": "uint256",
          "name": "amount",
          "type": "uint256"
        }
      ],
      "name": "Deposite",
      "type": "event"
    },
    {
      "anonymous": false,
      "inputs": [
        {
          "indexed": true,
          "internalType": "uint256",
          "name": "txId",
          "type": "uint256"
        }
      ],
      "name": "Execute",
      "type": "event"
    },
    {
      "anonymous": false,
      "inputs": [
        {
          "indexed": true,
          "internalType": "address",
          "name": "owner",
          "type": "address"
        },
        {
          "indexed": true,
          "internalType": "uint256",
          "name": "txId",
          "type": "uint256"
        }
      ],
      "name": "Revoke",
      "type": "event"
    },
    {
      "anonymous": false,
      "inputs": [
        {
          "indexed": true,
          "internalType": "uint256",
          "name": "txId",
          "type": "uint256"
        }
      ],
      "name": "Submit",
      "type": "event"
    },
    {
      "inputs": [
        {
          "internalType": "uint256",
          "name": "_txId",
          "type": "uint256"
        }
      ],
      "name": "approve",
      "outputs": [],
      "stateMutability": "nonpayable",
      "type": "function"
    },
    {
      "inputs": [
        {
          "internalType": "uint256",
          "name": "",
          "type": "uint256"
        },
        {
          "internalType": "address",
          "name": "",
          "type": "address"
        }
      ],
      "name": "approved",
      "outputs": [
        {
          "internalType": "bool",
          "name": "",
          "type": "bool"
        }
      ],
      "stateMutability": "view",
      "type": "function"
    },
    {
      "inputs": [],
      "name": "deployer",
      "outputs": [
        {
          "internalType": "address",
          "name": "",
          "type": "address"
        }
      ],
      "stateMutability": "view",
      "type": "function"
    },
    {
      "inputs": [
        {
          "internalType": "uint256",
          "name": "_txId",
          "type": "uint256"
        }
      ],
      "name": "execute",
      "outputs": [],
      "stateMutability": "nonpayable",
      "type": "function"
    },
    {
      "inputs": [
        {
          "internalType": "address",
          "name": "ContractAddress",
          "type": "address"
        }
      ],
      "name": "getContractBalance",
      "outputs": [
        {
          "internalType": "uint256",
          "name": "",
          "type": "uint256"
        }
      ],
      "stateMutability": "view",
      "type": "function"
    },
    {
      "inputs": [],
      "name": "getOwners",
      "outputs": [
        {
          "internalType": "address[]",
          "name": "",
          "type": "address[]"
        }
      ],
      "stateMutability": "view",
      "type": "function"
    },
    {
      "inputs": [
        {
          "internalType": "address",
          "name": "",
          "type": "address"
        }
      ],
      "name": "isOwner",
      "outputs": [
        {
          "internalType": "bool",
          "name": "",
          "type": "bool"
        }
      ],
      "stateMutability": "view",
      "type": "function"
    },
    {
      "inputs": [
        {
          "internalType": "uint256",
          "name": "",
          "type": "uint256"
        }
      ],
      "name": "owners",
      "outputs": [
        {
          "internalType": "address",
          "name": "",
          "type": "address"
        }
      ],
      "stateMutability": "view",
      "type": "function"
    },
    {
      "inputs": [],
      "name": "required",
      "outputs": [
        {
          "internalType": "uint256",
          "name": "",
          "type": "uint256"
        }
      ],
      "stateMutability": "view",
      "type": "function"
    },
    {
      "inputs": [
        {
          "internalType": "uint256",
          "name": "_txId",
          "type": "uint256"
        }
      ],
      "name": "revoke",
      "outputs": [],
      "stateMutability": "nonpayable",
      "type": "function"
    },
    {
      "inputs": [
        {
          "internalType": "address",
          "name": "_to",
          "type": "address"
        },
        {
          "internalType": "uint256",
          "name": "_value",
          "type": "uint256"
        },
        {
          "internalType": "bytes",
          "name": "_data",
          "type": "bytes"
        }
      ],
      "name": "submit",
      "outputs": [],
      "stateMutability": "nonpayable",
      "type": "function"
    },
    {
      "inputs": [
        {
          "internalType": "uint256",
          "name": "",
          "type": "uint256"
        }
      ],
      "name": "transcations",
      "outputs": [
        {
          "internalType": "address",
          "name": "to",
          "type": "address"
        },
        {
          "internalType": "uint256",
          "name": "value",
          "type": "uint256"
        },
        {
          "internalType": "bytes",
          "name": "data",
          "type": "bytes"
        },
        {
          "internalType": "bool",
          "name": "executed",
          "type": "bool"
        },
        {
          "internalType": "uint256",
          "name": "numberOfconfirmation",
          "type": "uint256"
        }
      ],
      "stateMutability": "view",
      "type": "function"
    },
    {
      "stateMutability": "payable",
      "type": "receive"
    }
  ],
  "bytecode": "0x60806040523480156200001157600080fd5b506040516200254b3803806200254b83398181016040528101906200003791906200054e565b33600360006101000a81548173ffffffffffffffffffffffffffffffffffffffff021916908373ffffffffffffffffffffffffffffffffffffffff1602179055506000825111620000bf576040517f08c379a0000000000000000000000000000000000000000000000000000000008152600401620000b69062000615565b60405180910390fd5b600081118015620000d1575081518111155b62000113576040517f08c379a00000000000000000000000000000000000000000000000000000000081526004016200010a90620006ad565b60405180910390fd5b60005b825181101562000315576000838281518110620001385762000137620006cf565b5b60200260200101519050600073ffffffffffffffffffffffffffffffffffffffff168173ffffffffffffffffffffffffffffffffffffffff1603620001b4576040517f08c379a0000000000000000000000000000000000000000000000000000000008152600401620001ab906200074e565b60405180910390fd5b600160008273ffffffffffffffffffffffffffffffffffffffff1673ffffffffffffffffffffffffffffffffffffffff16815260200190815260200160002060009054906101000a900460ff161562000244576040517f08c379a00000000000000000000000000000000000000000000000000000000081526004016200023b90620007c0565b60405180910390fd5b60018060008373ffffffffffffffffffffffffffffffffffffffff1673ffffffffffffffffffffffffffffffffffffffff16815260200190815260200160002060006101000a81548160ff0219169083151502179055506000819080600181540180825580915050600190039060005260206000200160009091909190916101000a81548173ffffffffffffffffffffffffffffffffffffffff021916908373ffffffffffffffffffffffffffffffffffffffff1602179055505080806200030c9062000811565b91505062000116565b508060028190555050506200085e565b6000604051905090565b600080fd5b600080fd5b600080fd5b6000601f19601f8301169050919050565b7f4e487b7100000000000000000000000000000000000000000000000000000000600052604160045260246000fd5b62000389826200033e565b810181811067ffffffffffffffff82111715620003ab57620003aa6200034f565b5b80604052505050565b6000620003c062000325565b9050620003ce82826200037e565b919050565b600067ffffffffffffffff821115620003f157620003f06200034f565b5b602082029050602081019050919050565b600080fd5b600073ffffffffffffffffffffffffffffffffffffffff82169050919050565b6000620004348262000407565b9050919050565b620004468162000427565b81146200045257600080fd5b50565b60008151905062000466816200043b565b92915050565b6000620004836200047d84620003d3565b620003b4565b90508083825260208201905060208402830185811115620004a957620004a862000402565b5b835b81811015620004d65780620004c1888262000455565b845260208401935050602081019050620004ab565b5050509392505050565b600082601f830112620004f857620004f762000339565b5b81516200050a8482602086016200046c565b91505092915050565b6000819050919050565b620005288162000513565b81146200053457600080fd5b50565b60008151905062000548816200051d565b92915050565b600080604083850312156200056857620005676200032f565b5b600083015167ffffffffffffffff81111562000589576200058862000334565b5b6200059785828601620004e0565b9250506020620005aa8582860162000537565b9150509250929050565b600082825260208201905092915050565b7f6f776e6572732072657175697265640000000000000000000000000000000000600082015250565b6000620005fd600f83620005b4565b91506200060a82620005c5565b602082019050919050565b600060208201905081810360008301526200063081620005ee565b9050919050565b7f696e76616c6964207265717569726564206e756d626572206f66206f776e657260008201527f7300000000000000000000000000000000000000000000000000000000000000602082015250565b600062000695602183620005b4565b9150620006a28262000637565b604082019050919050565b60006020820190508181036000830152620006c88162000686565b9050919050565b7f4e487b7100000000000000000000000000000000000000000000000000000000600052603260045260246000fd5b7f696e76616c6964206f776e657200000000000000000000000000000000000000600082015250565b600062000736600d83620005b4565b91506200074382620006fe565b602082019050919050565b60006020820190508181036000830152620007698162000727565b9050919050565b7f6f776e6572206973206e6f7420756e6971756500000000000000000000000000600082015250565b6000620007a8601383620005b4565b9150620007b58262000770565b602082019050919050565b60006020820190508181036000830152620007db8162000799565b9050919050565b7f4e487b7100000000000000000000000000000000000000000000000000000000600052601160045260246000fd5b60006200081e8262000513565b91507fffffffffffffffffffffffffffffffffffffffffffffffffffffffffffffffff8203620008535762000852620007e2565b5b600182019050919050565b611cdd806200086e6000396000f3fe6080604052600436106100ab5760003560e01c80638253951a116100645780638253951a1461024f578063a0e67e2b1461028c578063b759f954146102b7578063d5f39488146102e0578063dc8452cd1461030b578063fe0d94c11461033657610100565b8063025e7c271461010557806314de327f1461014257806320c5429b1461016b5780632f54bf6e1461019457806343ab265f146101d157806378e8691d1461020e57610100565b36610100573373ffffffffffffffffffffffffffffffffffffffff167f67d0e209d76ed24370106b1fd0fc1c82de411f7b72ba3d92736b75fe4add443a346040516100f69190611096565b60405180910390a2005b600080fd5b34801561011157600080fd5b5061012c600480360381019061012791906110e7565b61035f565b6040516101399190611155565b60405180910390f35b34801561014e57600080fd5b5061016960048036038101906101649190611201565b61039e565b005b34801561017757600080fd5b50610192600480360381019061018d91906110e7565b6105b1565b005b3480156101a057600080fd5b506101bb60048036038101906101b69190611275565b610848565b6040516101c891906112bd565b60405180910390f35b3480156101dd57600080fd5b506101f860048036038101906101f39190611275565b610868565b6040516102059190611096565b60405180910390f35b34801561021a57600080fd5b50610235600480360381019061023091906110e7565b610889565b604051610246959493929190611368565b60405180910390f35b34801561025b57600080fd5b50610276600480360381019061027191906113c2565b610984565b60405161028391906112bd565b60405180910390f35b34801561029857600080fd5b506102a16109b3565b6040516102ae91906114c0565b60405180910390f35b3480156102c357600080fd5b506102de60048036038101906102d991906110e7565b610a41565b005b3480156102ec57600080fd5b506102f5610d1e565b6040516103029190611155565b60405180910390f35b34801561031757600080fd5b50610320610d44565b60405161032d9190611096565b60405180910390f35b34801561034257600080fd5b5061035d600480360381019061035891906110e7565b610d4a565b005b6000818154811061036f57600080fd5b906000526020600020016000915054906101000a900473ffffffffffffffffffffffffffffffffffffffff1681565b600160003373ffffffffffffffffffffffffffffffffffffffff1673ffffffffffffffffffffffffffffffffffffffff16815260200190815260200160002060009054906101000a900460ff1661042a576040517f08c379a00000000000000000000000000000000000000000000000000000000081526004016104219061153f565b60405180910390fd5b60046040518060a001604052808673ffffffffffffffffffffffffffffffffffffffff16815260200185815260200184848080601f016020809104026020016040519081016040528093929190818152602001838380828437600081840152601f19601f8201169050808301925050505050505081526020016000151581526020016000815250908060018154018082558091505060019003906000526020600020906005020160009091909190915060008201518160000160006101000a81548173ffffffffffffffffffffffffffffffffffffffff021916908373ffffffffffffffffffffffffffffffffffffffff160217905550602082015181600101556040820151816002019081610540919061179a565b5060608201518160030160006101000a81548160ff021916908315150217905550608082015181600401555050600160048054905061057f919061189b565b7f08324b3d745b914e3abd4ffbfead91e3b78391a98c173202129215ab933adfbe60405160405180910390a250505050565b600160003373ffffffffffffffffffffffffffffffffffffffff1673ffffffffffffffffffffffffffffffffffffffff16815260200190815260200160002060009054906101000a900460ff1661063d576040517f08c379a00000000000000000000000000000000000000000000000000000000081526004016106349061153f565b60405180910390fd5b806004805490508110610685576040517f08c379a000000000000000000000000000000000000000000000000000000000815260040161067c9061191b565b60405180910390fd5b816004818154811061069a5761069961193b565b5b906000526020600020906005020160030160009054906101000a900460ff16156106f9576040517f08c379a00000000000000000000000000000000000000000000000000000000081526004016106f0906119b6565b60405180910390fd5b6005600084815260200190815260200160002060003373ffffffffffffffffffffffffffffffffffffffff1673ffffffffffffffffffffffffffffffffffffffff16815260200190815260200160002060009054906101000a900460ff16610796576040517f08c379a000000000000000000000000000000000000000000000000000000000815260040161078d90611a22565b60405180910390fd5b60006005600085815260200190815260200160002060003373ffffffffffffffffffffffffffffffffffffffff1673ffffffffffffffffffffffffffffffffffffffff16815260200190815260200160002060006101000a81548160ff021916908315150217905550823373ffffffffffffffffffffffffffffffffffffffff167fec9ab91322523c899ede7830ec9bfc992b5981cdcc27b91162fb23de5791117b60405160405180910390a3505050565b60016020528060005260406000206000915054906101000a900460ff1681565b60008173ffffffffffffffffffffffffffffffffffffffff16319050919050565b6004818154811061089957600080fd5b90600052602060002090600502016000915090508060000160009054906101000a900473ffffffffffffffffffffffffffffffffffffffff16908060010154908060020180546108e8906115bd565b80601f0160208091040260200160405190810160405280929190818152602001828054610914906115bd565b80156109615780601f1061093657610100808354040283529160200191610961565b820191906000526020600020905b81548152906001019060200180831161094457829003601f168201915b5050505050908060030160009054906101000a900460ff16908060040154905085565b60056020528160005260406000206020528060005260406000206000915091509054906101000a900460ff1681565b60606000805480602002602001604051908101604052809291908181526020018280548015610a3757602002820191906000526020600020905b8160009054906101000a900473ffffffffffffffffffffffffffffffffffffffff1673ffffffffffffffffffffffffffffffffffffffff16815260200190600101908083116109ed575b5050505050905090565b600160003373ffffffffffffffffffffffffffffffffffffffff1673ffffffffffffffffffffffffffffffffffffffff16815260200190815260200160002060009054906101000a900460ff16610acd576040517f08c379a0000000000000000000000000000000000000000000000000000000008152600401610ac49061153f565b60405180910390fd5b806004805490508110610b15576040517f08c379a0000000000000000000000000000000000000000000000000000000008152600401610b0c9061191b565b60405180910390fd5b816005600082815260200190815260200160002060003373ffffffffffffffffffffffffffffffffffffffff1673ffffffffffffffffffffffffffffffffffffffff16815260200190815260200160002060009054906101000a900460ff1615610bb4576040517f08c379a0000000000000000000000000000000000000000000000000000000008152600401610bab90611a8e565b60405180910390fd5b8260048181548110610bc957610bc861193b565b5b906000526020600020906005020160030160009054906101000a900460ff1615610c28576040517f08c379a0000000000000000000000000000000000000000000000000000000008152600401610c1f906119b6565b60405180910390fd5b60016005600086815260200190815260200160002060003373ffffffffffffffffffffffffffffffffffffffff1673ffffffffffffffffffffffffffffffffffffffff16815260200190815260200160002060006101000a81548160ff021916908315150217905550600060048581548110610ca757610ca661193b565b5b906000526020600020906005020190506001816004016000828254610ccc9190611aae565b92505081905550843373ffffffffffffffffffffffffffffffffffffffff167f90ec57f18fa7b15c6b8d5e4d1deb90796c74b2ff23d4d0cecad0cb42a96b312860405160405180910390a35050505050565b600360009054906101000a900473ffffffffffffffffffffffffffffffffffffffff1681565b60025481565b806004805490508110610d92576040517f08c379a0000000000000000000000000000000000000000000000000000000008152600401610d899061191b565b60405180910390fd5b8160048181548110610da757610da661193b565b5b906000526020600020906005020160030160009054906101000a900460ff1615610e06576040517f08c379a0000000000000000000000000000000000000000000000000000000008152600401610dfd906119b6565b60405180910390fd5b600254610e1284610fa3565b1015610e53576040517f08c379a0000000000000000000000000000000000000000000000000000000008152600401610e4a90611b2e565b60405180910390fd5b600060048481548110610e6957610e6861193b565b5b9060005260206000209060050201905060018160030160006101000a81548160ff02191690831515021790555060008160000160009054906101000a900473ffffffffffffffffffffffffffffffffffffffff1673ffffffffffffffffffffffffffffffffffffffff16826001015483600201604051610ee99190611bdc565b60006040518083038185875af1925050503d8060008114610f26576040519150601f19603f3d011682016040523d82523d6000602084013e610f2b565b606091505b5050905080610f6f576040517f08c379a0000000000000000000000000000000000000000000000000000000008152600401610f6690611c3f565b60405180910390fd5b847fddb556f1d2c1ec821e910b019d3685b229db152a0ecd517ca7e24b8bd713928960405160405180910390a25050505050565b6000805b60008054905081101561107757600560008481526020019081526020016000206000808381548110610fdc57610fdb61193b565b5b9060005260206000200160009054906101000a900473ffffffffffffffffffffffffffffffffffffffff1673ffffffffffffffffffffffffffffffffffffffff1673ffffffffffffffffffffffffffffffffffffffff16815260200190815260200160002060009054906101000a900460ff1615611064576001826110619190611aae565b91505b808061106f90611c5f565b915050610fa7565b50919050565b6000819050919050565b6110908161107d565b82525050565b60006020820190506110ab6000830184611087565b92915050565b600080fd5b600080fd5b6110c48161107d565b81146110cf57600080fd5b50565b6000813590506110e1816110bb565b92915050565b6000602082840312156110fd576110fc6110b1565b5b600061110b848285016110d2565b91505092915050565b600073ffffffffffffffffffffffffffffffffffffffff82169050919050565b600061113f82611114565b9050919050565b61114f81611134565b82525050565b600060208201905061116a6000830184611146565b92915050565b61117981611134565b811461118457600080fd5b50565b60008135905061119681611170565b92915050565b600080fd5b600080fd5b600080fd5b60008083601f8401126111c1576111c061119c565b5b8235905067ffffffffffffffff8111156111de576111dd6111a1565b5b6020830191508360018202830111156111fa576111f96111a6565b5b9250929050565b6000806000806060858703121561121b5761121a6110b1565b5b600061122987828801611187565b945050602061123a878288016110d2565b935050604085013567ffffffffffffffff81111561125b5761125a6110b6565b5b611267878288016111ab565b925092505092959194509250565b60006020828403121561128b5761128a6110b1565b5b600061129984828501611187565b91505092915050565b60008115159050919050565b6112b7816112a2565b82525050565b60006020820190506112d260008301846112ae565b92915050565b600081519050919050565b600082825260208201905092915050565b60005b838110156113125780820151818401526020810190506112f7565b60008484015250505050565b6000601f19601f8301169050919050565b600061133a826112d8565b61134481856112e3565b93506113548185602086016112f4565b61135d8161131e565b840191505092915050565b600060a08201905061137d6000830188611146565b61138a6020830187611087565b818103604083015261139c818661132f565b90506113ab60608301856112ae565b6113b86080830184611087565b9695505050505050565b600080604083850312156113d9576113d86110b1565b5b60006113e7858286016110d2565b92505060206113f885828601611187565b9150509250929050565b600081519050919050565b600082825260208201905092915050565b6000819050602082019050919050565b61143781611134565b82525050565b6000611449838361142e565b60208301905092915050565b6000602082019050919050565b600061146d82611402565b611477818561140d565b93506114828361141e565b8060005b838110156114b357815161149a888261143d565b97506114a583611455565b925050600181019050611486565b5085935050505092915050565b600060208201905081810360008301526114da8184611462565b905092915050565b600082825260208201905092915050565b7f6e6f74206f776e65720000000000000000000000000000000000000000000000600082015250565b60006115296009836114e2565b9150611534826114f3565b602082019050919050565b600060208201905081810360008301526115588161151c565b9050919050565b7f4e487b7100000000000000000000000000000000000000000000000000000000600052604160045260246000fd5b7f4e487b7100000000000000000000000000000000000000000000000000000000600052602260045260246000fd5b600060028204905060018216806115d557607f821691505b6020821081036115e8576115e761158e565b5b50919050565b60008190508160005260206000209050919050565b60006020601f8301049050919050565b600082821b905092915050565b6000600883026116507fffffffffffffffffffffffffffffffffffffffffffffffffffffffffffffffff82611613565b61165a8683611613565b95508019841693508086168417925050509392505050565b6000819050919050565b600061169761169261168d8461107d565b611672565b61107d565b9050919050565b6000819050919050565b6116b18361167c565b6116c56116bd8261169e565b848454611620565b825550505050565b600090565b6116da6116cd565b6116e58184846116a8565b505050565b5b81811015611709576116fe6000826116d2565b6001810190506116eb565b5050565b601f82111561174e5761171f816115ee565b61172884611603565b81016020851015611737578190505b61174b61174385611603565b8301826116ea565b50505b505050565b600082821c905092915050565b600061177160001984600802611753565b1980831691505092915050565b600061178a8383611760565b9150826002028217905092915050565b6117a3826112d8565b67ffffffffffffffff8111156117bc576117bb61155f565b5b6117c682546115bd565b6117d182828561170d565b600060209050601f83116001811461180457600084156117f2578287015190505b6117fc858261177e565b865550611864565b601f198416611812866115ee565b60005b8281101561183a57848901518255600182019150602085019450602081019050611815565b868310156118575784890151611853601f891682611760565b8355505b6001600288020188555050505b505050505050565b7f4e487b7100000000000000000000000000000000000000000000000000000000600052601160045260246000fd5b60006118a68261107d565b91506118b18361107d565b92508282039050818111156118c9576118c861186c565b5b92915050565b7f747820646f6573206e6f74206578697374000000000000000000000000000000600082015250565b60006119056011836114e2565b9150611910826118cf565b602082019050919050565b60006020820190508181036000830152611934816118f8565b9050919050565b7f4e487b7100000000000000000000000000000000000000000000000000000000600052603260045260246000fd5b7f747820616c726561647920657865637574656400000000000000000000000000600082015250565b60006119a06013836114e2565b91506119ab8261196a565b602082019050919050565b600060208201905081810360008301526119cf81611993565b9050919050565b7f7478206e6f7420617070726f7665640000000000000000000000000000000000600082015250565b6000611a0c600f836114e2565b9150611a17826119d6565b602082019050919050565b60006020820190508181036000830152611a3b816119ff565b9050919050565b7f747820616c726561647920617070726f76656400000000000000000000000000600082015250565b6000611a786013836114e2565b9150611a8382611a42565b602082019050919050565b60006020820190508181036000830152611aa781611a6b565b9050919050565b6000611ab98261107d565b9150611ac48361107d565b9250828201905080821115611adc57611adb61186c565b5b92915050565b7f617070726f76616c73203c207265717569726564000000000000000000000000600082015250565b6000611b186014836114e2565b9150611b2382611ae2565b602082019050919050565b60006020820190508181036000830152611b4781611b0b565b9050919050565b600081905092915050565b60008154611b66816115bd565b611b708186611b4e565b94506001821660008114611b8b5760018114611ba057611bd3565b60ff1983168652811515820286019350611bd3565b611ba9856115ee565b60005b83811015611bcb57815481890152600182019150602081019050611bac565b838801955050505b50505092915050565b6000611be88284611b59565b915081905092915050565b7f7478206661696c65640000000000000000000000000000000000000000000000600082015250565b6000611c296009836114e2565b9150611c3482611bf3565b602082019050919050565b60006020820190508181036000830152611c5881611c1c565b9050919050565b6000611c6a8261107d565b91507fffffffffffffffffffffffffffffffffffffffffffffffffffffffffffffffff8203611c9c57611c9b61186c565b5b60018201905091905056fea2646970667358221220816f2c5eb8ce05e92c01576a789d28be466da821b7ae827ae87fd0ff1fe00c5264736f6c63430008110033",
  "linkReferences": {},
  "deployedLinkReferences": {}
}